{
  "contractName": "CoShoe",
  "abi": [
    {
      "inputs": [],
      "payable": false,
      "stateMutability": "nonpayable",
      "type": "constructor"
    },
    {
      "constant": true,
      "inputs": [
        {
          "internalType": "address",
          "name": "",
          "type": "address"
        }
      ],
      "name": "balanceOf",
      "outputs": [
        {
          "internalType": "uint256",
          "name": "",
          "type": "uint256"
        }
      ],
      "payable": false,
      "stateMutability": "view",
      "type": "function"
    },
    {
      "constant": true,
      "inputs": [],
      "name": "minter",
      "outputs": [
        {
          "internalType": "address",
          "name": "",
          "type": "address"
        }
      ],
      "payable": false,
      "stateMutability": "view",
      "type": "function"
    },
    {
      "constant": true,
      "inputs": [
        {
          "internalType": "uint256",
          "name": "",
          "type": "uint256"
        }
      ],
      "name": "shoes",
      "outputs": [
        {
          "internalType": "address payable",
          "name": "owner",
          "type": "address"
        },
        {
          "internalType": "string",
          "name": "name",
          "type": "string"
        },
        {
          "internalType": "string",
          "name": "image",
          "type": "string"
        },
        {
          "internalType": "bool",
          "name": "sold",
          "type": "bool"
        }
      ],
      "payable": false,
      "stateMutability": "view",
      "type": "function"
    },
    {
      "constant": true,
      "inputs": [],
      "name": "shoesSold",
      "outputs": [
        {
          "internalType": "uint256",
          "name": "",
          "type": "uint256"
        }
      ],
      "payable": false,
      "stateMutability": "view",
      "type": "function"
    },
    {
      "constant": false,
      "inputs": [
        {
          "internalType": "string",
          "name": "name",
          "type": "string"
        },
        {
          "internalType": "string",
          "name": "image",
          "type": "string"
        }
      ],
      "name": "buyShoe",
      "outputs": [],
      "payable": true,
      "stateMutability": "payable",
      "type": "function"
    },
    {
      "constant": true,
      "inputs": [],
      "name": "checkPurchases",
      "outputs": [
        {
          "internalType": "bool[]",
          "name": "",
          "type": "bool[]"
        }
      ],
      "payable": false,
      "stateMutability": "view",
      "type": "function"
    }
  ],
  "bytecode": "0x60806040526706f05b59d3b20000600055600060015534801561002157600080fd5b5033600360006101000a81548173ffffffffffffffffffffffffffffffffffffffff021916908373ffffffffffffffffffffffffffffffffffffffff16021790555061006b610213565b33816000019073ffffffffffffffffffffffffffffffffffffffff16908173ffffffffffffffffffffffffffffffffffffffff168152505060405180602001604052806000815250816020018190525060405180602001604052806000815250816040018190525060008160600190151590811515815250506064600460003373ffffffffffffffffffffffffffffffffffffffff1673ffffffffffffffffffffffffffffffffffffffff168152602001908152602001600020819055506002819080600181540180825580915050906001820390600052602060002090600402016000909192909190915060008201518160000160006101000a81548173ffffffffffffffffffffffffffffffffffffffff021916908373ffffffffffffffffffffffffffffffffffffffff16021790555060208201518160010190805190602001906101ba929190610253565b5060408201518160020190805190602001906101d7929190610253565b5060608201518160030160006101000a81548160ff021916908315150217905550505050600160008154809291906001019190505550506102f8565b6040518060800160405280600073ffffffffffffffffffffffffffffffffffffffff16815260200160608152602001606081526020016000151581525090565b828054600181600116156101000203166002900490600052602060002090601f016020900481019282601f1061029457805160ff19168380011785556102c2565b828001600101855582156102c2579182015b828111156102c15782518255916020019190600101906102a6565b5b5090506102cf91906102d3565b5090565b6102f591905b808211156102f15760008160009055506001016102d9565b5090565b90565b610a75806103076000396000f3fe6080604052600436106100555760003560e01c8063075461721461005a578063540a2f4f146100b1578063558a2b8b14610203578063607473cf1461026f57806370a08231146103cd578063c141e8eb14610432575b600080fd5b34801561006657600080fd5b5061006f61045d565b604051808273ffffffffffffffffffffffffffffffffffffffff1673ffffffffffffffffffffffffffffffffffffffff16815260200191505060405180910390f35b610201600480360360408110156100c757600080fd5b81019080803590602001906401000000008111156100e457600080fd5b8201836020820111156100f657600080fd5b8035906020019184600183028401116401000000008311171561011857600080fd5b91908080601f016020809104026020016040519081016040528093929190818152602001838380828437600081840152601f19601f8201169050808301925050505050505091929192908035906020019064010000000081111561017b57600080fd5b82018360208201111561018d57600080fd5b803590602001918460018302840111640100000000831117156101af57600080fd5b91908080601f016020809104026020016040519081016040528093929190818152602001838380828437600081840152601f19601f820116905080830192505050505050509192919290505050610483565b005b34801561020f57600080fd5b5061021861066d565b6040518080602001828103825283818151815260200191508051906020019060200280838360005b8381101561025b578082015181840152602081019050610240565b505050509050019250505060405180910390f35b34801561027b57600080fd5b506102a86004803603602081101561029257600080fd5b8101908080359060200190929190505050610790565b604051808573ffffffffffffffffffffffffffffffffffffffff1673ffffffffffffffffffffffffffffffffffffffff168152602001806020018060200184151515158152602001838103835286818151815260200191508051906020019080838360005b8381101561032857808201518184015260208101905061030d565b50505050905090810190601f1680156103555780820380516001836020036101000a031916815260200191505b50838103825285818151815260200191508051906020019080838360005b8381101561038e578082015181840152602081019050610373565b50505050905090810190601f1680156103bb5780820380516001836020036101000a031916815260200191505b50965050505050505060405180910390f35b3480156103d957600080fd5b5061041c600480360360208110156103f057600080fd5b81019080803573ffffffffffffffffffffffffffffffffffffffff16906020019092919050505061092a565b6040518082815260200191505060405180910390f35b34801561043e57600080fd5b50610447610942565b6040518082815260200191505060405180910390f35b600360009054906101000a900473ffffffffffffffffffffffffffffffffffffffff1681565b600060015411806104975750606460015411155b6104ec576040517f08c379a0000000000000000000000000000000000000000000000000000000008152600401808060200182810382526025815260200180610a1c6025913960400191505060405180910390fd5b3460005414610546576040517f08c379a000000000000000000000000000000000000000000000000000000000815260040180806020018281038252602e8152602001806109ee602e913960400191505060405180910390fd5b600060019050600260405180608001604052803373ffffffffffffffffffffffffffffffffffffffff1681526020018581526020018481526020018315158152509080600181540180825580915050906001820390600052602060002090600402016000909192909190915060008201518160000160006101000a81548173ffffffffffffffffffffffffffffffffffffffff021916908373ffffffffffffffffffffffffffffffffffffffff1602179055506020820151816001019080519060200190610615929190610948565b506040820151816002019080519060200190610632929190610948565b5060608201518160030160006101000a81548160ff021916908315150217905550505050600160008154809291906001019190505550505050565b6060806001546040519080825280602002602001820160405280156106a15781602001602082028038833980820191505090505b509050600080600090505b600154811015610787576000600282815481106106c557fe5b906000526020600020906004020190503373ffffffffffffffffffffffffffffffffffffffff168160000160009054906101000a900473ffffffffffffffffffffffffffffffffffffffff1673ffffffffffffffffffffffffffffffffffffffff16141561075557600192508284838151811061073e57fe5b602002602001019015159081151581525050610779565b600092508284838151811061076657fe5b6020026020010190151590811515815250505b5080806001019150506106ac565b50819250505090565b6002818154811061079d57fe5b90600052602060002090600402016000915090508060000160009054906101000a900473ffffffffffffffffffffffffffffffffffffffff1690806001018054600181600116156101000203166002900480601f01602080910402602001604051908101604052809291908181526020018280546001816001161561010002031660029004801561086f5780601f106108445761010080835404028352916020019161086f565b820191906000526020600020905b81548152906001019060200180831161085257829003601f168201915b505050505090806002018054600181600116156101000203166002900480601f01602080910402602001604051908101604052809291908181526020018280546001816001161561010002031660029004801561090d5780601f106108e25761010080835404028352916020019161090d565b820191906000526020600020905b8154815290600101906020018083116108f057829003601f168201915b5050505050908060030160009054906101000a900460ff16905084565b60046020528060005260406000206000915090505481565b60015481565b828054600181600116156101000203166002900490600052602060002090601f016020900481019282601f1061098957805160ff19168380011785556109b7565b828001600101855582156109b7579182015b828111156109b657825182559160200191906001019061099b565b5b5090506109c491906109c8565b5090565b6109ea91905b808211156109e65760008160009055506001016109ce565b5090565b9056fe5468652076616c756520646f6573206e6f74206d6174636820746865207072696365206f66207468652073686f65546865726520617265206e6f2073686f657320617661696c61626c6520696e2073746f636ba265627a7a72315820bcf8fb80031eb07d190e88fca9278791d849f76820017e8c8e7a79d06a91d49c64736f6c63430005100032",
  "source": "pragma solidity >=0.5.0;\n\ncontract CoShoe {\n\n    struct Shoe {\n        address payable owner;\n        string name;\n        string image; //url to the image\n        bool sold;\n    }\n    //1 ether is equal to 10^18 wei//\n    uint price = 0.5 * (10 ** 18);\n\n    //state variable that holds the number of shoes that have already been sold\n    uint public shoesSold = 0;\n\n    Shoe[] public shoes;\n\n    //minting coins\n    //new\n    address public minter;\n    mapping (address => uint) public balanceOf;\n\n    constructor () public {\n        minter = msg.sender;\n\n        Shoe memory shoe0;\n        shoe0.owner = msg.sender;\n        shoe0.name = \"\";\n        shoe0.image = \"\";\n        shoe0.sold = false;\n\n        balanceOf[msg.sender] = 100;\n\n        //adding the instance of shoe1 to the shoes array\n        shoes.push(shoe0);\n        shoesSold++;\n    }\n\n\n    function buyShoe(string memory name, string memory image) public payable {\n        require(shoesSold > 0 || shoesSold <= 100, \"There are no shoes available in stock\");\n        require(price == msg.value, \"The value does not match the price of the shoe\");\n        bool sold = true;\n        shoes.push(Shoe(msg.sender, name, image, sold));\n        shoesSold++;\n    }\n\n    function checkPurchases() public view returns (bool[]memory) {\n        bool[] memory truearray = new bool[](shoesSold);\n        bool sold;\n        for (uint i = 0; i < shoesSold; i++){\n            Shoe storage shoeOwner = shoes[i];\n            if (shoeOwner.owner == msg.sender){\n                sold = true;\n                truearray[i] = sold;\n            }\n            else {\n                sold = false;\n                truearray[i] = sold;\n            }\n        }\n        return truearray;\n    }\n\n}",
  "sourcePath": "/Users/sophie/CoShoe/contracts/CoShoe.sol",
  "compiler": {
    "name": "solc",
    "version": "0.5.16+commit.9c3226ce.Emscripten.clang"
  },
  "schemaVersion": "3.0.23",
  "updatedAt": "2020-03-06T11:05:26.913Z",
  "networkType": "ethereum",
  "devdoc": {
    "methods": {}
  },
  "userdoc": {
    "methods": {}
  }
}